:100000000C946D000C9495000C9495000C94950044
:100010000C9495000C9495000C9495000C9495000C
:100020000C9495000C9495000C9495000C949500FC
:100030000C9495000C9495000C9495000C949500EC
:100040000C94DA030C9495000C94E1040C94BB041A
:100050000C9495000C9495000C9495000C949500CC
:100060000C9495000C949500A601AC01B201B80166
:10007000BE01C401CA0105030C0313031A032103C3
:100080003803280338032F03000000080002010092
:100090000003040700000000000000000000000052
:1000A000250028002B0000000000240027002A0063
:1000B000040404040404040402020202020203030E
:1000C0000303030301020408102040800102040816
:1000D0001020010204081020ED0D11241FBECFEFE7
:1000E000D8E0DEBFCDBF11E0A0E0B1E0E6EAF3E288
:1000F00002C005900D92A43EB107D9F722E0A4EE0C
:10010000B1E001C01D92AC3EB207E1F710E0CDE6D0
:10011000D0E004C02197FE010E94EE0ECC36D1073C
:10012000C9F70E94FB0A0C94D1110C940000CF92E5
:10013000DF92EF92FF920F931F93CF93DF936C01A7
:100140007A018B01C0E0D0E0CE15DF0589F0D8013F
:100150006D918D01D601ED91FC910190F081E02D22
:10016000C6010995892B11F47E0102C02196ECCFBE
:10017000C701DF91CF911F910F91FF90EF90DF901A
:10018000CF900895FC01918D828D981761F0828D3A
:10019000DF01A80FB11D5D968C91928D9F5F9F73BB
:1001A000928F90E008958FEF9FEF0895FC01918D5D
:1001B000828D981731F0828DE80FF11D858D90E0CA
:1001C00008958FEF9FEF0895FC01918D228D892F67
:1001D00090E0805C9F4F821B91098F73992708954F
:1001E00083EF91E00E94E40021E0892B09F420E0F4
:1001F000822F0895FC01848DDF01A80FB11DA35A41
:10020000BF4F2C91848D90E001968F739927848F36
:10021000A689B7892C93A089B1898C9180648C932D
:10022000938D848D981306C00288F389E02D808118
:100230008F7D80830895EF92FF920F931F93CF934A
:10024000DF93EC0181E0888F9B8D8C8D981305C026
:10025000E889F989808185FD24C0F62E0B8D10E098
:100260000F5F1F4F0F731127E02E8C8DE8120CC00B
:100270000FB607FCFACFE889F989808185FFF5CFB1
:10028000CE010E94FA00F1CF8B8DFE01E80FF11D27
:10029000E35AFF4FF0820B8FEA89FB8980818062ED
:1002A00007C0EE89FF896083E889F98980818064CD
:1002B000808381E090E0DF91CF911F910F91FF90BB
:1002C000EF900895CF93DF93EC01888D8823C9F0D8
:1002D000EA89FB89808185FD05C0A889B9898C914F
:1002E00086FD0FC00FB607FCF5CF808185FFF2CFEA
:1002F000A889B9898C9185FFEDCFCE010E94FA00C3
:10030000E7CFDF91CF91089580E090E0892B29F02D
:100310000E94F00081110C9400000895CF93DF93A8
:100320004770552766277727FA013197EC01A88196
:10033000B981E730F10520F4EC5CFF4F0C94EE0E30
:100340001496ED91FC91159761E029C01496ED91FA
:10035000FC91159765E023C01496ED91FC911597DB
:1003600064E01DC01496ED91FC91159766E017C0EE
:100370001496ED91FC91159762E011C01496ED91E1
:10038000FC9115976AE00BC01496ED91FC911597BE
:1003900068E005C01496ED91FC91159769E0DF9136
:1003A000CF910994CF93DF93EC01CB01BA0126E002
:1003B00030E040E050E00E94CF0E623071058105D0
:1003C000910559F18CF46115710581059105F1F0E4
:1003D0006130710581059105C1F5E881F9810480DD
:1003E000F581E02D65E02DC0643071058105910532
:1003F00011F1D4F0653071058105910531F5E88181
:10040000F9810480F581E02D66E01BC0E881F98167
:100410000480F581E02D64E014C0E881F981048056
:10042000F581E02D61E00DC0E881F9810480F5815E
:10043000E02D63E006C0E881F9810480F581E02DBC
:1004400062E0CE01DF91CF910994DF91CF910895C1
:100450004370552766277727DC01ED91FC910480D6
:10046000F581E02D423051056105710571F0433091
:1004700051056105710559F041305105610571055E
:1004800011F065E005C066E003C06AE001C069E004
:100490000994CF93DF93EC01CB01BA0123E030E064
:1004A00040E050E00E94CF0E61307105810591055A
:1004B00081F0623071058105910591F0672B682B01
:1004C000692BC1F4E881F9810480F581E02D64E0B5
:1004D0000DC0E881F9810480F581E02D61E006C05E
:1004E000E881F9810480F581E02D62E0CE01DF91A1
:1004F000CF910994DF91CF910895437055276627D6
:100500007727DC01ED91FC910480F581E02D4230EC
:1005100051056105710571F04330510561057105A3
:1005200059F0413051056105710511F062E005C0D7
:1005300063E003C061E001C060E009940F931F9382
:10054000CF93DF93EC01E881F9810480F581E02D00
:100550008C010D5B1F4FD8018C91811102C060E0AE
:1005600001C062E0CE010995E881F9810480F5813E
:10057000E02DD8018C91811102C061E001C063E0DF
:10058000CE010995EBA5FCA5E230F10538F0EE0FA0
:10059000FF1FEE0FFF1F35973197F1F7E881F981C3
:1005A0000480F581E02DD8018C91811102C060E0BA
:1005B00001C062E0CE01DF91CF911F910F910994AC
:1005C000CF93DF93EC0120E030E0A9016B897C89B7
:1005D0008D899E890E94D41018161CF4EFA5F8A9E5
:1005E00002C0E9A9FAA9DF91CF9109940F931F9353
:1005F000DC011296EC910E2F10E009301105C0F5C8
:10060000F801E55CFF4F0C94EE0EDC01ED91FC91DE
:100610000084F185E02D29C0DC01ED91FC9102847C
:10062000F385E02D22C0DC01ED91FC910484F58579
:10063000E02D1BC0DC01ED91FC910684F785E02DD7
:1006400014C0DC01ED91FC910088F189E02D0DC012
:10065000DC01ED91FC910288F389E02D06C0DC01FC
:10066000ED91FC910488F589E02D1F910F9109947B
:100670001F910F910895CF92DF92EF92FF920F9307
:100680001F93CF93DF93FC012281243041F0283067
:1006900031F0233031F0263021F012E003C014E0B5
:1006A00001C013E0EC012796E12CF12CC62ED12CD1
:1006B00001E0C6010E2C02C0959587950A94E2F7D9
:1006C000688180FD6027FE01349780810E94440983
:1006D000FFEFEF1AFF0A2196E11658F3DF91CF9151
:1006E0001F910F91FF90EF90DF90CF900895CF93DF
:1006F000DF93EC0160E08E810E94440961E08E810D
:100700000E94440960E08E810E9444098BE891E0D8
:100710000197F1F7DF91CF9108950E94A611CF9331
:10072000DF93FC012281222329F1EC0183810E94C5
:1007300084078C810E9484078A81843011F088307C
:1007400029F48D810E9484078E8105C0833011F0C9
:10075000863019F48D810E9484078EA58F3F51F059
:100760000E9484076DA581E068278EA5DF91CF9157
:100770000C944409DF91CF910895CF93DF93FC014E
:1007800022812223A1F0EC010190F081E02D048070
:10079000F581E02D60E009958EA58F3F41F00E9424
:1007A00084076DA58EA5DF91CF910C944409DF914C
:1007B000CF9108951F920F920FB60F9211242F938D
:1007C0003F938F939F93AF93BF938091EB01909151
:1007D000EC01A091ED01B091EE013091EA0123E02E
:1007E000230F2D3720F40196A11DB11D05C026E869
:1007F000230F0296A11DB11D2093EA018093EB0106
:100800009093EC01A093ED01B093EE018091EF0184
:100810009091F001A091F101B091F2010196A11D1A
:10082000B11D8093EF019093F001A093F101B0937B
:10083000F201BF91AF919F918F913F912F910F90B6
:100840000FBE0F901F9018956115710579F0FB018F
:1008500001900020E9F73197AF01461B570BDC01EF
:10086000ED91FC910280F381E02D099480E090E00D
:1008700008954F925F926F927F92EF92FF920F9343
:100880001F93CF93DF93CDB7DEB7A1970FB6F89440
:10089000DEBF0FBECDBF7C01FA01CB0119A2223011
:1008A00008F42AE08E010F5D1F4F422E512C612C5F
:1008B000712CBF01A30192010E94AD0EF901CA0182
:1008C000015011096A3014F4605D01C0695CD801FF
:1008D0006C93232B242B252B61F7B801C7010E94B1
:1008E0002404A1960FB6F894DEBF0FBECDBFDF91F2
:1008F000CF911F910F91FF90EF907F906F905F903D
:100900004F900895CF92DF92EF92FF920F931F9333
:10091000CF93DF93EC016A017B01E881F9810190BB
:10092000F081E02D6DE209958C0144275527BA012D
:100930004C195D096E097F092AE0CE010E94390435
:10094000800F911FDF91CF911F910F91FF90EF903A
:10095000DF90CF9008950C942404CF93C82F0E9469
:10096000A30764E371E080E992E00E94AB048C2F5E
:10097000CF910C94A3071F920F920FB60F921124E0
:100980002F933F934F935F936F937F938F939F9397
:10099000AF93BF93EF93FF9383EF91E00E94FA0030
:1009A000FF91EF91BF91AF919F918F917F916F9147
:1009B0005F914F913F912F910F900FBE0F901F901D
:1009C00018951F920F920FB60F9211242F938F93A9
:1009D0009F93EF93FF93E0910302F09104028081D3
:1009E000E0910902F0910A0282FD12C0908180918B
:1009F0000C028F5F8F7320910D02821751F0E091EE
:100A00000C02F0E0ED50FE4F958F80930C0201C078
:100A10008081FF91EF919F918F912F910F900FBE49
:100A20000F901F9018952F923F924F925F926F9266
:100A30007F928F929F92AF92BF92CF92DF92EF926E
:100A4000FF920F931F93CF93DF9300D000D0CDB7C9
:100A5000DEB71C01FC0187849088A188B288838559
:100A60009485A585B685881A990AAA0ABB0A63895E
:100A70007489858996899B01AC010E94D9106B010C
:100A80007C01F101638D748D858D968D9B01AC0188
:100A90000E94090F9B01AC01C701B6010E947A0FA9
:100AA0000E94EC0F81149104A104B104A1F46230FE
:100AB0007105810591050CF07CC0F10113A214A20F
:100AC00015A216A2138A148A158A168A13AA14AAC2
:100AD00015AA16AA03C1F10103A914A925A936A9CB
:100AE000ED5BFF4F181419041A041B04FCF41016D4
:100AF0001106120613064CF4681579058A059B0544
:100B00004CF52081211155C025C001151105210585
:100B1000310509F44EC0681579058A059B050CF06E
:100B200048C08081882309F444C037C010161106DC
:100B300012061306F4F40027112798010819190961
:100B40002A093B0960177107820793071CF420816B
:100B5000222379F19B01AC0188279927DC01821BB4
:100B6000930BA40BB50BF10183AB94ABA5ABB6AB68
:100B700020C00115110521053105D9F0CC24DD2453
:100B80007601C818D908EA08FB086C157D058E05A2
:100B90009F057CF4808181110CC0309520951095C3
:100BA00001951F4F2F4F3F4FF10103AB14AB25AB06
:100BB00036ABF101C3A8D4A8E5A8F6A881010D5B66
:100BC0001F4FC114D104E104F10491F487A990AD41
:100BD000A1ADB2AD83AF94AFA5AFB6AF81E01814AD
:100BE00019041A041B040CF080E0F801808340C053
:100BF000F10183AC94ACA5ACB6ACA5019401C501E0
:100C0000B4010E94090F2B013C01C701B6010E94EB
:100C1000241020E030E040E850E40E94D91020E0A9
:100C200030E040E85FE30E94090F9B01AC01C30183
:100C3000B2010E947A0F9B01AC01C501B4010E9470
:100C4000080F4B015C01F101FF96408051806280EA
:100C500073809201A3010E94D410181614F042016F
:100C60005301A401B501F10143AF54AF65AF76AFB5
:100C7000FFEFCF1ADF0AEF0AFF0AF101C3AAD4AAD5
:100C8000E5AAF6AA23AD34AD45AD56ADCA01B9010A
:100C900029833A834B835C830E94F30FF10163A3A2
:100CA00074A385A396A329813A814B815C8160E07E
:100CB00074E284E799E40E947A0FF101638B748BEC
:100CC000858B968BF8012081211108C0DC01CB01B6
:100CD000B058F101838B948BA58BB68B0F900F903E
:100CE0000F900F90DF91CF911F910F91FF90EF9098
:100CF000DF90CF90BF90AF909F908F907F906F903C
:100D00005F904F903F902F9008954F925F926F9217
:100D10007F928F929F92AF92BF92CF92DF92EF928B
:100D2000FF92CF93DF93EC016A017B018B8C9C8C4B
:100D3000AD8CBE8C9A01AB01C501B4010E94750F48
:100D4000882309F449C06BA97CA98DA99EA90E949A
:100D500024102B013C01A7019601C501B4010E949A
:100D60007A0F9B01AC01C301B2010E94D9100E940D
:100D7000EC0F6BAB7CAB8DAB9EABA701960160E03B
:100D800070E080E090E40E947A0F0E944C1126E50A
:100D90003EE04DE25FE30E94D91020E034E244E7F8
:100DA00059E40E94D9106FAB78AF89AF9AAFCB8E60
:100DB000DC8EED8EFE8ECE01DF91CF91FF90EF9015
:100DC000DF90CF90BF90AF909F908F907F906F906B
:100DD0005F904F900C941305DF91CF91FF90EF90AF
:100DE000DF90CF90BF90AF909F908F907F906F904B
:100DF0005F904F900895CF92DF92EF92FF920F9302
:100E00001F93CF93DF937C016C0187E0C80ED11C48
:100E1000C0E0D0E0062F10E0B8010C2E02C075959E
:100E200067950A94E2F76170F60181916F010E9463
:100E300044092196C430D10579F7C701DF91CF91DC
:100E40001F910F91FF90EF90DF90CF900C9477035C
:100E5000CF92DF92EF92FF920F931F93CF93DF9386
:100E6000EC01F62E642F8C810E9444098D818F3F06
:100E700019F060E00E9444098F850F2D10E084FF77
:100E800025C06E0187E0C80ED11CE12CF12CB80101
:100E90000E2C02C0759567950A94E2F76170F60111
:100EA00081916F010E944409FFEFEF1AFF0A88E069
:100EB000E816F10461F7CE01DF91CF911F910F91F8
:100EC000FF90EF90DF90CF900C947703B80184E00F
:100ED000759567958A95E1F7CE010E94FB066F2D07
:100EE000CE01DF91CF911F910F91FF90EF90DF9096
:100EF000CF900C94FB0641E00E94280781E090E02F
:100F0000089540E00C94280790E0FC01EC53FF4F5B
:100F10002491FC01E055FF4F8491882399F090E0E3
:100F2000880F991FFC01EA55FF4FA591B491FC0170
:100F3000E456FF4F859194918FB7F894EC91E22B92
:100F4000EC938FBF0895843008F083E09091A30262
:100F5000891710F08FEF890FE82FF0E0E057FD4F71
:100F60006489606880E992E00C9481078F929F9277
:100F7000AF92BF92CF92DF92EF92FF920F931F93A7
:100F8000CF93DF938B01D82FC92F2091BB023091D3
:100F9000BC024091BD025091BE020E94750F882391
:100FA00009F460C0C090BF02D090C002E090C102BE
:100FB000F090C20246015701B7FAB094B7F8B09466
:100FC000A5019401B8018D2F9C2F0E94750F87FDFC
:100FD0000DC0A7019601B8018D2F9C2F0E94D4103F
:100FE000181634F06801ED2EFC2E02C07501640164
:100FF00020E030E0A901C701B6010E94750F811100
:1010000009C01092CB021092CC021092CD02109225
:10101000CE0220C0A701960160E074E284E799E463
:101020000E947A0F9F770E94F30F6093CB02709318
:10103000CC028093CD029093CE02C1E020E030E05C
:10104000A901C701B6010E94D41018160CF0C0E027
:10105000C093EB02C092BB02D092BC02E092BD02F0
:10106000F092BE02DF91CF911F910F91FF90EF9010
:10107000DF90CF90BF90AF909F908F900895CF93C7
:10108000DF93AC01990F660B770B77FF05C083EFF9
:1010900091E00E94820405C02AE083EF91E00E9463
:1010A0003904EC0167E571E083EF91E00E942404CC
:1010B0008C0F9D1FDF91CF910895AC01990F660BA6
:1010C000770B77FF04C080E992E00C9482042AE059
:1010D00080E992E00C9439048F929F92AF92BF9274
:1010E000CF92DF92EF92FF92CF93DF936B017C015F
:1010F0009B01AC010E948C11882319F068ED71E00E
:1011000027C046015701E894B7F82FEF3FEF4FE7AC
:101110005FE7C501B4010E948C1181110DC02FEF52
:101120003FEF4FE75FE7C501B4010E94750F181646
:101130001CF46CED71E00CC02FEF3FEF4FE75FE464
:10114000C701B6010E94D410181684F460EE71E055
:1011500080E992E0DF91CF91FF90EF90DF90CF9008
:10116000BF90AF909F908F900C9424042FEF3FEF8F
:101170004FE75FECC701B6010E94750F87FDE6CF10
:1011800020E030E0A901C701B6010E94750F87FF7A
:1011900011C0E0919002F09191020190F081E02D58
:1011A0006DE280E992E00995EC01F7FAF094F7F826
:1011B000F09402C0C0E0D0E02AE037ED43EA5BE300
:1011C000C701B6010E94090F4B015C010E94F30F99
:1011D0006B017C010E9422109B01AC01C501B4018E
:1011E0000E94080F4B015C012AE0B701A60180E9CB
:1011F00092E00E943904C80FD91F65E571E080E9CB
:1012000092E00E942404C80FD91F20E030E040E2A1
:1012100051E4C501B4010E94D9104B015C010E9448
:10122000F30F6B01E12CF12C2AE0B701A60180E954
:1012300092E00E943904C80FD91FC701B6010E946D
:1012400022109B01AC01C501B4010E94080F20E0EF
:1012500030E040E251E40E94D9100E94F30FAB014C
:1012600060E070E02AE080E992E00E9439048C0F8F
:101270009D1FDF91CF91FF90EF90DF90CF90BF90B7
:10128000AF909F908F90089590E0FC01E857FF4F3A
:101290003491FC01EC53FF4F2491FC01E055FF4FCA
:1012A000E491EE2309F43BC0332339F1333091F05C
:1012B00038F43130A9F0323001F584B58F7D12C099
:1012C000373091F03830A1F03430B9F4809180009B
:1012D0008F7D03C0809180008F77809380000DC048
:1012E00084B58F7784BD09C08091B0008F7703C02B
:1012F0008091B0008F7D8093B000F0E0EE0FFF1F73
:10130000E456FF4FA591B4918FB7F894EC91611119
:1013100003C020952E2301C02E2B2C938FBF089540
:10132000EF92FF920F931F93CF93DF93EC01623004
:1013300018F08F8588608F876B8B1C8A80E48D8B7B
:1013400080E18E8B80E58F8B8C810E9484078D815C
:101350008F3F11F00E9484078E810E9484077E01D6
:1013600087E0E80EF11C00E010E08F8584FD03C0EB
:1013700084E090E002C088E090E00817190744F488
:10138000F70181917F010E9484070F5F1F4FEDCF0E
:101390008BE39DE00197F1F760E08C810E944409A6
:1013A00060E08E810E9444098D818F3F19F060E0DA
:1013B0000E9444096F8564FD1DC063E0CE010E9458
:1013C000FB060BE416E4C8010197F1F763E0CE01D8
:1013D0000E94FB06C8010197F1F763E0CE010E946D
:1013E000FB0683E592E00197F1F762E0CE010E94EF
:1013F000FB0616C06062CE010E9481078BE496E472
:101400000197F1F76F856062CE010E94810783E545
:1014100092E00197F1F76F856062CE010E9481072B
:101420006F856062CE010E94810784E0888B6CE04A
:10143000CE010E94810761E0CE010E9481078BE30B
:101440009FE10197F1F782E0898B66E0CE01DF91A1
:10145000CF911F910F91FF90EF900C9481078E30E8
:1014600008F08E508770806480937C0080917A00B1
:10147000806480937A0080917A0086FDFCCF809111
:1014800078002091790090E0922B08953FB7F8946E
:101490008091EF019091F001A091F101B091F201E2
:1014A00026B5A89B05C02F3F19F00196A11DB11DBF
:1014B0003FBFBA2FA92F982F8827820F911DA11DFA
:1014C000B11DBC01CD0142E0660F771F881F991F37
:1014D0004A95D1F70895CF92DF92EF92FF928091D3
:1014E000CB029091CC02A091CD02B091CE02892B7B
:1014F0008A2B8B2B09F452C00E94460A6B017C0197
:101500008091CF029091D002A091D102B091D202ED
:10151000B701A601481B590B6A0B7B0B8091CB02CC
:101520009091CC02A091CD02B091CE0248175907FC
:101530006A077B0798F12091EB028091B3029091AA
:10154000B402A091B502B091B602222321F0019617
:10155000A11DB11D03C00197A109B1098093B30278
:101560009093B402A093B502B093B6024091B30237
:101570005091B4026091B5027091B60288EA92E08F
:101580000E94F602C092CF02D092D002E092D10225
:10159000F092D20288EA92E00E94130520E030E047
:1015A000A9016091BB027091BC028091BD02909133
:1015B000BE020E94750F811118C081E0C090B70271
:1015C000D090B802E090B902F090BA024091B30214
:1015D0005091B4026091B5027091B602C416D5065E
:1015E000E606F70619F480E001C081E0FF90EF9075
:1015F000DF90CF900895CF93DF93CDB7DEB7C45679
:10160000D1090FB6F894DEBF0FBECDBF789484B574
:10161000826084BD84B5816084BD85B5826085BDEE
:1016200085B5816085BD80916E00816080936E007C
:10163000109281008091810082608093810080916E
:10164000810081608093810080918000816080931F
:1016500080008091B10084608093B1008091B000DF
:1016600081608093B00080917A00846080937A00DA
:1016700080917A00826080937A0080917A00816004
:1016800080937A0080917A00806880937A0010922B
:10169000C10020E030E04AE754E46091BF0270915D
:1016A000C0028091C1029091C2020E94750F8823EE
:1016B00009F44FC080E090E0AAE7B4E48093BF0251
:1016C0009093C002A093C102B093C2028093E7023C
:1016D0009093E802A093E902B093EA028091DB02C2
:1016E0009091DC02A091DD02B091DE02181619067D
:1016F0001A061B0674F56091BB027091BC028091C2
:10170000BD029091BE029B01AC010E94D9106B01F9
:101710007C016091C3027091C4028091C5029091D6
:10172000C6029B01AC010E94090F9B01AC01C701DD
:10173000B6010E947A0F0E94EC0F6093DB02709357
:10174000DC028093DD029093DE0288EA92E00E9440
:10175000130540E050E068EC73E488EA92E00E94F0
:10176000850660E070E08AE794E40E94B607E091A5
:101770000302F091040282E08083E091FF01F09186
:1017800000021082E0910102F09102028FEC80834E
:1017900010920B02E0910702F091080286E080832C
:1017A000E0910502F0910602808180618083E091E2
:1017B0000502F0910602808188608083E091050235
:1017C000F0910602808180688083E0910502F091AB
:1017D000060280818F7D80836BE471E083EF91E06E
:1017E0000E94240467E571E083EF91E00E942404E5
:1017F00060E081E10E9444090E94460A4B015C01BD
:1018000034EFC32EDD24D394E12CF12C0E94460A40
:10181000DC01CB0188199909AA09BB09883E9340CC
:10182000A105B10558F021E0C21AD108E108F1087C
:1018300038EE830E33E0931EA11CB11CC114D104F9
:10184000E104F10419F76AE571E083EF91E00E9489
:10185000240467E571E083EF91E00E94240481E1B4
:101860000E942F0A9093E5018093E40162E080E9F1
:1018700092E00E94900980E00E94A30724E6C22E15
:10188000D12C9E012F5F3F4F790181E10E942F0AE9
:101890004091E4015091E5019C01241B350B37FF79
:1018A00003C0319521953109240F351F37FF03C03F
:1018B000319521953109BA016F5B7F4F621773072C
:1018C00064F4FA01E81BF90BCF01B6010E94990EEE
:1018D0007093E9016093E80104C01092E90110924D
:1018E000E8014091E8015091E90120910001309117
:1018F0000101429FC001439F900D529F900D112402
:10190000092E000CAA0BBB0B4091B3025091B402FC
:101910006091B5027091B602840F951FA61FB71F84
:101920004091B7025091B8026091B9027091BA0229
:10193000481759076A077B0761F08093B7029093B5
:10194000B802A093B902B093BA0288EA92E00E946A
:1019500013050E946B0A4091B3025091B40260914A
:10196000B5027091B6028091E6019091E701092ECF
:10197000000CAA0BBB0B481759076A077B07A1F09D
:101980005093E7014093E60180E090E00E94AD04AF
:1019900062E771E080E992E00E94AB048091E60189
:1019A0009091E7010E945D0883EF91E00E94E400BE
:1019B000892B09F40FC100E010E0FE01E00FF11FD8
:1019C00080818536A9F00E0D1F1D5801AE18BF0885
:1019D00083EF91E00E94E400892B41F083EF91E0D6
:1019E0000E94C200F80181938F01EFCF8501E5CFFE
:1019F00081E090E00E94AD04EFEFFFEFEC0FFD1FE0
:101A0000E00FF11F80818D3609F5C7010E94AB11EF
:101A10008C016DE771E083EF91E00E94AB04C80197
:101A20000E943F08109301010093000181E00E9491
:101A3000A30762E971E080E992E00E94AB04809123
:101A40000001909101010E945D08C4C08337A9F58F
:101A5000C7010E94AB118C0169E971E083EF91E04D
:101A60000E94AB04C8010E943F08B801110F880B07
:101A7000990B0E9424104B015C0120E030E04AE702
:101A800054E40E94D410181634F4812C912C9AE757
:101A9000A92E94E4B92E81E00E94A30769EA71E0BF
:101AA00080E992E00E94AB04C501B4010E946C0879
:101AB000C501B4010E94B6078DC0813609F041C04E
:101AC000C7010E94AB118C016FEA71E083EF91E0D6
:101AD0000E94AB04C8010E943F08B801110F880B97
:101AE000990B0E9424104B015C0120E030E04AE792
:101AF00054E40E94D410181634F4812C912C8AE7F7
:101B0000A82E84E4B82E81E00E94A30766EC71E061
:101B100080E992E00E94AB04C501B4010E946C0808
:101B200020E030E0A901C501B4010E94750F8823AF
:101B300009F450C0B501A40188EA92E00E9485062C
:101B400049C08D3409F046C0C7010E94AB114C0159
:101B50006CEC71E083EF91E00E94AB04C4010E9441
:101B60003F0881E00E94A3076CEC71E080E992E0FD
:101B70000E94AB04C4010E945D08092C000CAA0855
:101B8000BB088091B3029091B402A091B502B091CC
:101B9000B60288159905AA05BB05E1F08091B70248
:101BA0009091B802A091B902B091BA028815990536
:101BB000AA05BB0561F08092B7029092B802A0928C
:101BC000B902B092BA0288EA92E00E9413050E941C
:101BD0006B0AD7CF0E94840158CECF93DF93E3EFF7
:101BE000F1E01382128288EE93E0A0E0B0E08483FB
:101BF0009583A683B78386E091E09183808385EC0B
:101C000090E09587848784EC90E09787868780ECC6
:101C100090E0918B808B81EC90E0938B828B82ECB7
:101C200090E0958B848B86EC90E0978B868B118E61
:101C3000128E138E148EE8EAF2E08EE191E0918329
:101C40008083C8E0C283138614861586168617869D
:101C5000108A118A128A138A148A158A168A80E0D9
:101C600090E0A0E8BFE3878B908FA18FB28F138E97
:101C7000148E158E168E878F90A3A1A3B2A313A2E4
:101C800014A215A216A221E030E034A723A7DFEFAB
:101C9000D6A717A210A611A612A622E023832BE036
:101CA00024832AE025832CE0268313AA14AA15AAEC
:101CB00016AA17AA10AE11AE12AE13AE14AE15AE20
:101CC00016AE8093E7029093E802A093E902B093E6
:101CD000EA021092EB021782108611861286CF015B
:101CE0000E948F0340E050E060E87FE388EA92E0E2
:101CF0000E948506E0E9F2E01382128286E191E01B
:101D00009183808383E08483D58384E0868386E027
:101D1000878387E08087C18789E08287138614865E
:101D200015861686178661E0CF01DF91CF910C945E
:101D3000900997FB072E16F4009407D077FD09D081
:101D40000E94F40E07FC05D03EF4909581959F4FBC
:101D50000895709561957F4F0895A1E21A2EAA1BF0
:101D6000BB1BFD010DC0AA1FBB1FEE1FFF1FA2174B
:101D7000B307E407F50720F0A21BB30BE40BF50B48
:101D8000661F771F881F991F1A9469F760957095D1
:101D9000809590959B01AC01BD01CF010895052E62
:101DA00097FB1EF400940E94E60E57FD07D00E9498
:101DB000AD0E07FC03D04EF40C94E60E5095409502
:101DC000309521953F4F4F4F5F4F089590958095E7
:101DD000709561957F4F8F4F9F4F0895EE0FFF1FB6
:101DE0000590F491E02D0994AA1BBB1B51E107C09B
:101DF000AA1FBB1FA617B70710F0A61BB70B881F9B
:101E0000991F5A95A9F780959095BC01CD01089529
:101E10005058BB27AA270E94200F0C949A100E94AA
:101E20008C1038F00E94931020F039F49F3F19F481
:101E300026F40C9489100EF4E095E7FB0C948310C3
:101E4000E92F0E94AB1058F3BA1762077307840793
:101E5000950720F079F4A6F50C94CD100EF4E095DA
:101E60000B2EBA2FA02D0B01B90190010C01CA0154
:101E7000A0011124FF27591B99F0593F50F4503EFF
:101E800068F11A16F040A22F232F342F4427585FF1
:101E9000F3CF469537952795A795F0405395C9F709
:101EA0007EF41F16BA0B620B730B840BBAF09150C1
:101EB000A1F0FF0FBB1F661F771F881FC2F70EC060
:101EC000BA0F621F731F841F48F487957795679533
:101ED000B795F7959E3F08F0B0CF9395880F08F01F
:101EE0009927EE0F9795879508950E945F1008F443
:101EF00081E008950E948E0F0C949A100E94931016
:101F000058F00E948C1040F029F45F3F29F00C94A7
:101F1000831051110C94CE100C9489100E94AB10B8
:101F200068F39923B1F3552391F3951B550BBB2708
:101F3000AA2762177307840738F09F5F5F4F220F4D
:101F4000331F441FAA1FA9F335D00E2E3AF0E0E844
:101F500032D091505040E695001CCAF72BD0FE2F8E
:101F600029D0660F771F881FBB1F26173707480722
:101F7000AB07B0E809F0BB0B802DBF01FF279358DA
:101F80005F4F3AF09E3F510578F00C9483100C940B
:101F9000CE105F3FE4F3983ED4F38695779567952E
:101FA000B795F7959F5FC9F7880F911D969587950F
:101FB00097F90895E1E0660F771F881FBB1F62172E
:101FC00073078407BA0720F0621B730B840BBA0BEC
:101FD000EE1F88F7E09508950E94F30F6894B11101
:101FE0000C94CE1008950E94B31088F09F5798F07B
:101FF000B92F9927B751B0F0E1F0660F771F881F0E
:10200000991F1AF0BA95C9F714C0B13091F00E9427
:10201000CD10B1E008950C94CD10672F782F88274C
:10202000B85F39F0B93FCCF3869577956795B3954E
:10203000D9F73EF490958095709561957F4F8F4FBD
:102040009F4F0895E89409C097FB3EF490958095C2
:10205000709561957F4F8F4F9F4F9923A9F0F92F6E
:1020600096E9BB279395F695879577956795B795EC
:10207000F111F8CFFAF4BB0F11F460FF1BC06F5FD2
:102080007F4F8F4F9F4F16C0882311F096E911C0E4
:10209000772321F09EE8872F762F05C0662371F005
:1020A00096E8862F70E060E02AF09A95660F771F19
:1020B000881FDAF7880F9695879597F90895990FF5
:1020C0000008550FAA0BE0E8FEEF16161706E80702
:1020D000F907C0F012161306E407F50798F0621B23
:1020E000730B840B950B39F40A2661F0232B242BF8
:1020F000252B21F408950A2609F4A140A6958FEF17
:10210000811D811D089597F99F6780E870E060E068
:1021100008959FEF80EC089500240A941616170680
:1021200018060906089500240A94121613061406C8
:1021300005060895092E0394000C11F4882352F02B
:10214000BB0F40F4BF2B11F460FF04C06F5F7F4FE3
:102150008F4F9F4F089557FD9058440F551F59F0CA
:102160005F3F71F04795880F97FB991F61F09F3F84
:1021700079F087950895121613061406551FF2CFAD
:102180004695F1DF08C0161617061806991FF1CFFD
:1021900086957105610508940895E894BB27662724
:1021A0007727CB0197F908950E945F1008F48FEF0D
:1021B00008950E94EC100C949A100E948C1038F034
:1021C0000E94931020F0952311F00C9483100C942E
:1021D000891011240C94CE100E94AB1070F3959FBF
:1021E000C1F3950F50E0551F629FF001729FBB270E
:1021F000F00DB11D639FAA27F00DB11DAA1F649FAA
:102200006627B00DA11D661F829F2227B00DA11D5C
:10221000621F739FB00DA11D621F839FA00D611DE2
:10222000221F749F3327A00D611D231F849F600D03
:10223000211D822F762F6A2F11249F5750409AF02C
:10224000F1F088234AF0EE0FFF1FBB1F661F771FB8
:10225000881F91505040A9F79E3F510580F00C9483
:1022600083100C94CE105F3FE4F3983ED4F3869530
:1022700077956795B795F795E7959F5FC1F7FE2B23
:10228000880F911D9695879597F9089519F416F47E
:102290000C9489100C9491110E94B310B8F39923F7
:1022A000C9F3B6F39F57550B87FF0E949F11002477
:1022B000A0E640EA900180585695979528F4805CF6
:1022C000660F771F881F20F026173707480730F45E
:1022D000621B730B840B202931294A2BA695179476
:1022E0000794202531254A2758F7660F771F881F46
:1022F00020F026173707480730F4620B730B840B66
:10230000200D311D411DA09581F7B901842F9158F1
:10231000880F9695879508950E945F10880B990BFA
:1023200008959F3F31F0915020F4879577956795F8
:10233000B795880F911D9695879597F908959150B7
:102340005040660F771F881FD2F7089581E090E014
:10235000F8940C94D111FC0188279927E8942191D5
:102360002032E9F3293010F02E30C8F32B3241F03F
:102370002D3239F4689404C00E94C911820F911D56
:10238000219120532A30C0F31EF4909581959F4FE0
:1023900008957AE0979F902D879F802D910D1124AD
:0623A0000895F894FFCF40
:1023A6000100000000001B019700E400C200D600F7
:1023B6006201000000007B07970000000000BD03DB
:1023C6008F033B03F602E0029E027D0249022802C9
:1023D600D2018E0120202020202020202020202015
:1023E6002020202020202020202000537461727499
:1023F600696E672E2E2E000D0A0043616C696272AB
:102406006174696E67204A6F79737469636B2E2EE7
:102416002E00506F736974696F6E3A2000496E70B2
:1024260075746564204D756C7469706C6965723A73
:1024360020004D756C743A2000496E7075746564A1
:102446002053706565643A20005370643A20004951
:102456006E707574656420416363656C6572617442
:10246600696F6E3A20004163633A20004D6F7669CA
:102476006E6720546F3A20006E616E00696E6600CA
:042486006F76660007
:00000001FF
